{
  "contractName": "ToDoList",
  "abi": [
    {
      "constant": true,
      "inputs": [],
      "name": "taskcount",
      "outputs": [
        {
          "name": "",
          "type": "uint256"
        }
      ],
      "payable": false,
      "stateMutability": "view",
      "type": "function",
      "signature": "0x8bd48089"
    }
  ],
  "bytecode": "0x608060405260008055348015601357600080fd5b50609e806100226000396000f3fe608060405260043610603f576000357c0100000000000000000000000000000000000000000000000000000000900463ffffffff1680638bd48089146044575b600080fd5b348015604f57600080fd5b506056606c565b6040518082815260200191505060405180910390f35b6000548156fea165627a7a72305820bb88d2342909d9f63db4e0ebc1262ecbf6b33eea813035166bfc1f91d4f30d780029",
  "source": "// SPDX-License-Identifier: MIT\npragma solidity >=0.5.0 <0.9.0;\n\ncontract ToDoList{\n    uint public taskcount = 0;  //State Variable !\n}\n",
  "sourcePath": "/home/mihir/Code/Solidity/eth-todo-list/contracts/ToDoList.sol",
  "compiler": {
    "name": "solc",
    "version": "0.5.0+commit.1d4f565a.Emscripten.clang"
  },
  "schemaVersion": "3.0.1",
  "updatedAt": "2022-04-29T06:39:37.176Z",
  "devdoc": {
    "methods": {}
  },
  "userdoc": {
    "methods": {}
  }
}